{
  "_format": "hh-sol-artifact-1",
  "contractName": "PalisadesTokenFactory",
  "sourceName": "src/contracts/PalisadesTokenFactory.sol",
  "abi": [
    {
      "anonymous": false,
      "inputs": [
        {
          "indexed": true,
          "internalType": "address",
          "name": "previousOwner",
          "type": "address"
        },
        {
          "indexed": true,
          "internalType": "address",
          "name": "newOwner",
          "type": "address"
        }
      ],
      "name": "OwnershipTransferred",
      "type": "event"
    },
    {
      "anonymous": false,
      "inputs": [
        {
          "indexed": false,
          "internalType": "string",
          "name": "propertyId",
          "type": "string"
        },
        {
          "indexed": false,
          "internalType": "string",
          "name": "propertyAddress",
          "type": "string"
        },
        {
          "indexed": false,
          "internalType": "address",
          "name": "tokenAddress",
          "type": "address"
        },
        {
          "indexed": false,
          "internalType": "uint256",
          "name": "propertyValue",
          "type": "uint256"
        },
        {
          "indexed": false,
          "internalType": "uint256",
          "name": "totalTokenSupply",
          "type": "uint256"
        }
      ],
      "name": "PropertyTokenCreated",
      "type": "event"
    },
    {
      "inputs": [
        {
          "internalType": "string",
          "name": "_propertyId",
          "type": "string"
        },
        {
          "internalType": "string",
          "name": "_propertyAddress",
          "type": "string"
        },
        {
          "internalType": "uint256",
          "name": "_propertyValue",
          "type": "uint256"
        },
        {
          "internalType": "uint256",
          "name": "_totalTokenSupply",
          "type": "uint256"
        },
        {
          "internalType": "string",
          "name": "_tokenName",
          "type": "string"
        },
        {
          "internalType": "string",
          "name": "_tokenSymbol",
          "type": "string"
        }
      ],
      "name": "createPropertyToken",
      "outputs": [
        {
          "internalType": "address",
          "name": "",
          "type": "address"
        }
      ],
      "stateMutability": "nonpayable",
      "type": "function"
    },
    {
      "inputs": [
        {
          "internalType": "uint256",
          "name": "_index",
          "type": "uint256"
        }
      ],
      "name": "getPropertyTokenAtIndex",
      "outputs": [
        {
          "internalType": "address",
          "name": "",
          "type": "address"
        }
      ],
      "stateMutability": "view",
      "type": "function"
    },
    {
      "inputs": [
        {
          "internalType": "string",
          "name": "_propertyId",
          "type": "string"
        }
      ],
      "name": "getPropertyTokenByPropertyId",
      "outputs": [
        {
          "internalType": "address",
          "name": "",
          "type": "address"
        }
      ],
      "stateMutability": "view",
      "type": "function"
    },
    {
      "inputs": [],
      "name": "getPropertyTokenCount",
      "outputs": [
        {
          "internalType": "uint256",
          "name": "",
          "type": "uint256"
        }
      ],
      "stateMutability": "view",
      "type": "function"
    },
    {
      "inputs": [],
      "name": "owner",
      "outputs": [
        {
          "internalType": "address",
          "name": "",
          "type": "address"
        }
      ],
      "stateMutability": "view",
      "type": "function"
    },
    {
      "inputs": [
        {
          "internalType": "string",
          "name": "",
          "type": "string"
        }
      ],
      "name": "propertyIdToToken",
      "outputs": [
        {
          "internalType": "address",
          "name": "",
          "type": "address"
        }
      ],
      "stateMutability": "view",
      "type": "function"
    },
    {
      "inputs": [
        {
          "internalType": "uint256",
          "name": "",
          "type": "uint256"
        }
      ],
      "name": "propertyTokens",
      "outputs": [
        {
          "internalType": "address",
          "name": "",
          "type": "address"
        }
      ],
      "stateMutability": "view",
      "type": "function"
    },
    {
      "inputs": [],
      "name": "renounceOwnership",
      "outputs": [],
      "stateMutability": "nonpayable",
      "type": "function"
    },
    {
      "inputs": [
        {
          "internalType": "address",
          "name": "newOwner",
          "type": "address"
        }
      ],
      "name": "transferOwnership",
      "outputs": [],
      "stateMutability": "nonpayable",
      "type": "function"
    }
  ],
  "bytecode": "0x608060405234801561001057600080fd5b5061002d61002261003260201b60201c565b61003a60201b60201c565b6100fe565b600033905090565b60008060009054906101000a900473ffffffffffffffffffffffffffffffffffffffff169050816000806101000a81548173ffffffffffffffffffffffffffffffffffffffff021916908373ffffffffffffffffffffffffffffffffffffffff1602179055508173ffffffffffffffffffffffffffffffffffffffff168173ffffffffffffffffffffffffffffffffffffffff167f8be0079c531659141344cd1fd0a4f28419497f9722a3daafe3b4186f6b6457e060405160405180910390a35050565b6141758061010d6000396000f3fe60806040523480156200001157600080fd5b5060043610620000a05760003560e01c8063718e120b116200006f578063718e120b146200013f5780638da5cb5b14620001755780639aaec7191462000197578063a6ff834314620001cd578063f2fde38b146200020357620000a0565b806318761f5014620000a55780636e66767714620000db5780636fd345d214620000fd578063715018a61462000133575b600080fd5b620000c36004803603810190620000bd91906200091c565b62000223565b604051620000d2919062000993565b60405180910390f35b620000e5620002b8565b604051620000f49190620009c1565b60405180910390f35b6200011b600480360381019062000115919062000b40565b620002c5565b6040516200012a919062000993565b60405180910390f35b6200013d62000386565b005b6200015d600480360381019062000157919062000b40565b6200039e565b6040516200016c919062000993565b60405180910390f35b6200017f620003e7565b6040516200018e919062000993565b60405180910390f35b620001b56004803603810190620001af919062000b91565b62000410565b604051620001c4919062000993565b60405180910390f35b620001eb6004803603810190620001e591906200091c565b620006a4565b604051620001fa919062000993565b60405180910390f35b6200022160048036038101906200021b919062000cda565b620006e4565b005b600060018054905082106200026f576040517f08c379a0000000000000000000000000000000000000000000000000000000008152600401620002669062000d6d565b60405180910390fd5b6001828154811062000286576200028562000d8f565b5b9060005260206000200160009054906101000a900473ffffffffffffffffffffffffffffffffffffffff169050919050565b6000600180549050905090565b600080600283604051620002da919062000e37565b908152602001604051809103902060009054906101000a900473ffffffffffffffffffffffffffffffffffffffff169050600073ffffffffffffffffffffffffffffffffffffffff168173ffffffffffffffffffffffffffffffffffffffff16036200037d576040517f08c379a0000000000000000000000000000000000000000000000000000000008152600401620003749062000ea0565b60405180910390fd5b80915050919050565b620003906200076e565b6200039c6000620007f3565b565b6002818051602081018201805184825260208301602085012081835280955050505050506000915054906101000a900473ffffffffffffffffffffffffffffffffffffffff1681565b60008060009054906101000a900473ffffffffffffffffffffffffffffffffffffffff16905090565b60006200041c6200076e565b600073ffffffffffffffffffffffffffffffffffffffff1660028860405162000446919062000e37565b908152602001604051809103902060009054906101000a900473ffffffffffffffffffffffffffffffffffffffff1673ffffffffffffffffffffffffffffffffffffffff1614620004ce576040517f08c379a0000000000000000000000000000000000000000000000000000000008152600401620004c59062000f12565b60405180910390fd5b6000878787878787604051620004e490620008bf565b620004f59695949392919062000f75565b604051809103906000f08015801562000512573d6000803e3d6000fd5b5090508073ffffffffffffffffffffffffffffffffffffffff1663f2fde38b6200053b620003e7565b6040518263ffffffff1660e01b815260040162000559919062000993565b600060405180830381600087803b1580156200057457600080fd5b505af115801562000589573d6000803e3d6000fd5b5050505060008190506001819080600181540180825580915050600190039060005260206000200160009091909190916101000a81548173ffffffffffffffffffffffffffffffffffffffff021916908373ffffffffffffffffffffffffffffffffffffffff1602179055508060028a60405162000608919062000e37565b908152602001604051809103902060006101000a81548173ffffffffffffffffffffffffffffffffffffffff021916908373ffffffffffffffffffffffffffffffffffffffff1602179055507f6effc1fdad67f30f1cfab7cc444f6a1791d9ad733489c9c66e31ed9a0bc015238989838a8a6040516200068d95949392919062000ffe565b60405180910390a180925050509695505050505050565b60018181548110620006b557600080fd5b906000526020600020016000915054906101000a900473ffffffffffffffffffffffffffffffffffffffff1681565b620006ee6200076e565b600073ffffffffffffffffffffffffffffffffffffffff168173ffffffffffffffffffffffffffffffffffffffff160362000760576040517f08c379a00000000000000000000000000000000000000000000000000000000081526004016200075790620010df565b60405180910390fd5b6200076b81620007f3565b50565b62000778620008b7565b73ffffffffffffffffffffffffffffffffffffffff1662000798620003e7565b73ffffffffffffffffffffffffffffffffffffffff1614620007f1576040517f08c379a0000000000000000000000000000000000000000000000000000000008152600401620007e89062001151565b60405180910390fd5b565b60008060009054906101000a900473ffffffffffffffffffffffffffffffffffffffff169050816000806101000a81548173ffffffffffffffffffffffffffffffffffffffff021916908373ffffffffffffffffffffffffffffffffffffffff1602179055508173ffffffffffffffffffffffffffffffffffffffff168173ffffffffffffffffffffffffffffffffffffffff167f8be0079c531659141344cd1fd0a4f28419497f9722a3daafe3b4186f6b6457e060405160405180910390a35050565b600033905090565b612fcc806200117483390190565b6000604051905090565b600080fd5b600080fd5b6000819050919050565b620008f681620008e1565b81146200090257600080fd5b50565b6000813590506200091681620008eb565b92915050565b600060208284031215620009355762000934620008d7565b5b6000620009458482850162000905565b91505092915050565b600073ffffffffffffffffffffffffffffffffffffffff82169050919050565b60006200097b826200094e565b9050919050565b6200098d816200096e565b82525050565b6000602082019050620009aa600083018462000982565b92915050565b620009bb81620008e1565b82525050565b6000602082019050620009d86000830184620009b0565b92915050565b600080fd5b600080fd5b6000601f19601f8301169050919050565b7f4e487b7100000000000000000000000000000000000000000000000000000000600052604160045260246000fd5b62000a3382620009e8565b810181811067ffffffffffffffff8211171562000a555762000a54620009f9565b5b80604052505050565b600062000a6a620008cd565b905062000a78828262000a28565b919050565b600067ffffffffffffffff82111562000a9b5762000a9a620009f9565b5b62000aa682620009e8565b9050602081019050919050565b82818337600083830152505050565b600062000ad962000ad38462000a7d565b62000a5e565b90508281526020810184848401111562000af85762000af7620009e3565b5b62000b0584828562000ab3565b509392505050565b600082601f83011262000b255762000b24620009de565b5b813562000b3784826020860162000ac2565b91505092915050565b60006020828403121562000b595762000b58620008d7565b5b600082013567ffffffffffffffff81111562000b7a5762000b79620008dc565b5b62000b888482850162000b0d565b91505092915050565b60008060008060008060c0878903121562000bb15762000bb0620008d7565b5b600087013567ffffffffffffffff81111562000bd25762000bd1620008dc565b5b62000be089828a0162000b0d565b965050602087013567ffffffffffffffff81111562000c045762000c03620008dc565b5b62000c1289828a0162000b0d565b955050604062000c2589828a0162000905565b945050606062000c3889828a0162000905565b935050608087013567ffffffffffffffff81111562000c5c5762000c5b620008dc565b5b62000c6a89828a0162000b0d565b92505060a087013567ffffffffffffffff81111562000c8e5762000c8d620008dc565b5b62000c9c89828a0162000b0d565b9150509295509295509295565b62000cb4816200096e565b811462000cc057600080fd5b50565b60008135905062000cd48162000ca9565b92915050565b60006020828403121562000cf35762000cf2620008d7565b5b600062000d038482850162000cc3565b91505092915050565b600082825260208201905092915050565b7f496e646578206f7574206f6620626f756e647300000000000000000000000000600082015250565b600062000d5560138362000d0c565b915062000d628262000d1d565b602082019050919050565b6000602082019050818103600083015262000d888162000d46565b9050919050565b7f4e487b7100000000000000000000000000000000000000000000000000000000600052603260045260246000fd5b600081519050919050565b600081905092915050565b60005b8381101562000df457808201518184015260208101905062000dd7565b60008484015250505050565b600062000e0d8262000dbe565b62000e19818562000dc9565b935062000e2b81856020860162000dd4565b80840191505092915050565b600062000e45828462000e00565b915081905092915050565b7f50726f7065727479206e6f7420666f756e640000000000000000000000000000600082015250565b600062000e8860128362000d0c565b915062000e958262000e50565b602082019050919050565b6000602082019050818103600083015262000ebb8162000e79565b9050919050565b7f50726f706572747920494420616c726561647920657869737473000000000000600082015250565b600062000efa601a8362000d0c565b915062000f078262000ec2565b602082019050919050565b6000602082019050818103600083015262000f2d8162000eeb565b9050919050565b600062000f418262000dbe565b62000f4d818562000d0c565b935062000f5f81856020860162000dd4565b62000f6a81620009e8565b840191505092915050565b600060c082019050818103600083015262000f91818962000f34565b9050818103602083015262000fa7818862000f34565b905062000fb86040830187620009b0565b62000fc76060830186620009b0565b818103608083015262000fdb818562000f34565b905081810360a083015262000ff1818462000f34565b9050979650505050505050565b600060a08201905081810360008301526200101a818862000f34565b9050818103602083015262001030818762000f34565b905062001041604083018662000982565b620010506060830185620009b0565b6200105f6080830184620009b0565b9695505050505050565b7f4f776e61626c653a206e6577206f776e657220697320746865207a65726f206160008201527f6464726573730000000000000000000000000000000000000000000000000000602082015250565b6000620010c760268362000d0c565b9150620010d48262001069565b604082019050919050565b60006020820190508181036000830152620010fa81620010b8565b9050919050565b7f4f776e61626c653a2063616c6c6572206973206e6f7420746865206f776e6572600082015250565b60006200113960208362000d0c565b9150620011468262001101565b602082019050919050565b600060208201905081810360008301526200116c816200112a565b905091905056fe60806040526001600e60006101000a81548160ff0219169083151502179055503480156200002c57600080fd5b5060405162002fcc38038062002fcc833981810160405281019062000052919062000390565b81818160039081620000659190620006e9565b508060049081620000779190620006e9565b5050506200009a6200008e620000f460201b60201c565b620000fc60201b60201c565b60016006819055508560079081620000b39190620006e9565b508460089081620000c59190620006e9565b508360098190555082600a819055508284620000e29190620007ff565b600b8190555050505050505062000837565b600033905090565b6000600560009054906101000a900473ffffffffffffffffffffffffffffffffffffffff16905081600560006101000a81548173ffffffffffffffffffffffffffffffffffffffff021916908373ffffffffffffffffffffffffffffffffffffffff1602179055508173ffffffffffffffffffffffffffffffffffffffff168173ffffffffffffffffffffffffffffffffffffffff167f8be0079c531659141344cd1fd0a4f28419497f9722a3daafe3b4186f6b6457e060405160405180910390a35050565b6000604051905090565b600080fd5b600080fd5b600080fd5b600080fd5b6000601f19601f8301169050919050565b7f4e487b7100000000000000000000000000000000000000000000000000000000600052604160045260246000fd5b6200022b82620001e0565b810181811067ffffffffffffffff821117156200024d576200024c620001f1565b5b80604052505050565b600062000262620001c2565b905062000270828262000220565b919050565b600067ffffffffffffffff821115620002935762000292620001f1565b5b6200029e82620001e0565b9050602081019050919050565b60005b83811015620002cb578082015181840152602081019050620002ae565b60008484015250505050565b6000620002ee620002e88462000275565b62000256565b9050828152602081018484840111156200030d576200030c620001db565b5b6200031a848285620002ab565b509392505050565b600082601f8301126200033a5762000339620001d6565b5b81516200034c848260208601620002d7565b91505092915050565b6000819050919050565b6200036a8162000355565b81146200037657600080fd5b50565b6000815190506200038a816200035f565b92915050565b60008060008060008060c08789031215620003b057620003af620001cc565b5b600087015167ffffffffffffffff811115620003d157620003d0620001d1565b5b620003df89828a0162000322565b965050602087015167ffffffffffffffff811115620004035762000402620001d1565b5b6200041189828a0162000322565b95505060406200042489828a0162000379565b94505060606200043789828a0162000379565b935050608087015167ffffffffffffffff8111156200045b576200045a620001d1565b5b6200046989828a0162000322565b92505060a087015167ffffffffffffffff8111156200048d576200048c620001d1565b5b6200049b89828a0162000322565b9150509295509295509295565b600081519050919050565b7f4e487b7100000000000000000000000000000000000000000000000000000000600052602260045260246000fd5b60006002820490506001821680620004fb57607f821691505b602082108103620005115762000510620004b3565b5b50919050565b60008190508160005260206000209050919050565b60006020601f8301049050919050565b600082821b905092915050565b6000600883026200057b7fffffffffffffffffffffffffffffffffffffffffffffffffffffffffffffffff826200053c565b6200058786836200053c565b95508019841693508086168417925050509392505050565b6000819050919050565b6000620005ca620005c4620005be8462000355565b6200059f565b62000355565b9050919050565b6000819050919050565b620005e683620005a9565b620005fe620005f582620005d1565b84845462000549565b825550505050565b600090565b6200061562000606565b62000622818484620005db565b505050565b5b818110156200064a576200063e6000826200060b565b60018101905062000628565b5050565b601f8211156200069957620006638162000517565b6200066e846200052c565b810160208510156200067e578190505b620006966200068d856200052c565b83018262000627565b50505b505050565b600082821c905092915050565b6000620006be600019846008026200069e565b1980831691505092915050565b6000620006d98383620006ab565b9150826002028217905092915050565b620006f482620004a8565b67ffffffffffffffff81111562000710576200070f620001f1565b5b6200071c8254620004e2565b620007298282856200064e565b600060209050601f8311600181146200076157600084156200074c578287015190505b620007588582620006cb565b865550620007c8565b601f198416620007718662000517565b60005b828110156200079b5784890151825560018201915060208501945060208101905062000774565b86831015620007bb5784890151620007b7601f891682620006ab565b8355505b6001600288020188555050505b505050505050565b7f4e487b7100000000000000000000000000000000000000000000000000000000600052601260045260246000fd5b60006200080c8262000355565b9150620008198362000355565b9250826200082c576200082b620007d0565b5b828204905092915050565b61278580620008476000396000f3fe6080604052600436106101c25760003560e01c8063715018a6116100f7578063a1bb617011610095578063e20993bc11610064578063e20993bc14610630578063ee7a3b8e14610659578063f2fde38b14610684578063fea08a8e146106ad576101c2565b8063a1bb617014610550578063a457c2d714610579578063a9059cbb146105b6578063dd62ed3e146105f3576101c2565b80637ff9b596116100d15780637ff9b596146104925780638da5cb5b146104bd57806395d89b41146104e857806396b9886214610513576101c2565b8063715018a61461043457806377df092d1461044b5780637b97008d14610476576101c2565b806323b872dd11610164578063395093511161013e578063395093511461038557806344e43cb8146103c257806366440d71146103cc57806370a08231146103f7576101c2565b806323b872dd146103065780632d07953a14610343578063313ce5671461035a576101c2565b806310ea13df116101a057806310ea13df1461025a57806318160ddd146102855780631ca8b6cb146102b057806322f3e2d4146102db576101c2565b806306fdde03146101c7578063095ea7b3146101f25780631015c6821461022f575b600080fd5b3480156101d357600080fd5b506101dc6106d8565b6040516101e991906119c1565b60405180910390f35b3480156101fe57600080fd5b5061021960048036038101906102149190611a7c565b61076a565b6040516102269190611ad7565b60405180910390f35b34801561023b57600080fd5b5061024461078d565b6040516102519190611b01565b60405180910390f35b34801561026657600080fd5b5061026f610793565b60405161027c9190611b01565b60405180910390f35b34801561029157600080fd5b5061029a610799565b6040516102a79190611b01565b60405180910390f35b3480156102bc57600080fd5b506102c56107a3565b6040516102d29190611b01565b60405180910390f35b3480156102e757600080fd5b506102f06107a9565b6040516102fd9190611ad7565b60405180910390f35b34801561031257600080fd5b5061032d60048036038101906103289190611b1c565b6107bc565b60405161033a9190611ad7565b60405180910390f35b34801561034f57600080fd5b506103586107eb565b005b34801561036657600080fd5b5061036f610969565b60405161037c9190611b8b565b60405180910390f35b34801561039157600080fd5b506103ac60048036038101906103a79190611a7c565b610972565b6040516103b99190611ad7565b60405180910390f35b6103ca6109a9565b005b3480156103d857600080fd5b506103e1610a46565b6040516103ee91906119c1565b60405180910390f35b34801561040357600080fd5b5061041e60048036038101906104199190611ba6565b610ad4565b60405161042b9190611b01565b60405180910390f35b34801561044057600080fd5b50610449610b1c565b005b34801561045757600080fd5b50610460610b30565b60405161046d9190611b01565b60405180910390f35b610490600480360381019061048b9190611bd3565b610b36565b005b34801561049e57600080fd5b506104a7610db3565b6040516104b49190611b01565b60405180910390f35b3480156104c957600080fd5b506104d2610db9565b6040516104df9190611c0f565b60405180910390f35b3480156104f457600080fd5b506104fd610de3565b60405161050a91906119c1565b60405180910390f35b34801561051f57600080fd5b5061053a60048036038101906105359190611ba6565b610e75565b6040516105479190611b01565b60405180910390f35b34801561055c57600080fd5b5061057760048036038101906105729190611c56565b610e8d565b005b34801561058557600080fd5b506105a0600480360381019061059b9190611a7c565b610ee9565b6040516105ad9190611ad7565b60405180910390f35b3480156105c257600080fd5b506105dd60048036038101906105d89190611a7c565b610f60565b6040516105ea9190611ad7565b60405180910390f35b3480156105ff57600080fd5b5061061a60048036038101906106159190611c83565b610f83565b6040516106279190611b01565b60405180910390f35b34801561063c57600080fd5b5061065760048036038101906106529190611bd3565b61100a565b005b34801561066557600080fd5b5061066e611030565b60405161067b91906119c1565b60405180910390f35b34801561069057600080fd5b506106ab60048036038101906106a69190611ba6565b6110be565b005b3480156106b957600080fd5b506106c2611141565b6040516106cf9190611b01565b60405180910390f35b6060600380546106e790611cf2565b80601f016020809104026020016040519081016040528092919081815260200182805461071390611cf2565b80156107605780601f1061073557610100808354040283529160200191610760565b820191906000526020600020905b81548152906001019060200180831161074357829003601f168201915b5050505050905090565b600080610775611147565b905061078281858561114f565b600191505092915050565b60095481565b600d5481565b6000600254905090565b600a5481565b600e60009054906101000a900460ff1681565b6000806107c7611147565b90506107d4858285611318565b6107df8585856113a4565b60019150509392505050565b6107f361161a565b6107fb611698565b6000601054600f5461080d9190611d52565b905060008111610852576040517f08c379a000000000000000000000000000000000000000000000000000000000815260040161084990611dd2565b60405180910390fd5b80601060008282546108649190611df2565b925050819055507f4af957e83bae9af28d97033ead523ed57c0f21e021037b85ec168f156ab3b7a08160405161089a9190611b01565b60405180910390a160006108ac610799565b826108b79190611e55565b905060005b6108c46116e7565b81101561095c5760006108d6826116f0565b905060006108e382610ad4565b9050600081111561094757600084826108fc9190611e86565b90508273ffffffffffffffffffffffffffffffffffffffff166108fc829081150290604051600060405180830381858888f19350505050158015610944573d6000803e3d6000fd5b50505b5050808061095490611ec8565b9150506108bc565b505050610967611701565b565b60006012905090565b60008061097d611147565b905061099e81858561098f8589610f83565b6109999190611df2565b61114f565b600191505092915050565b6109b161161a565b600034116109f4576040517f08c379a00000000000000000000000000000000000000000000000000000000081526004016109eb90611f5c565b60405180910390fd5b34600f6000828254610a069190611df2565b925050819055507fa233bf660ff45a53efdacc9f262f3ba6a03b00e58e587d8536a4cfec59680a1c34604051610a3c9190611b01565b60405180910390a1565b60088054610a5390611cf2565b80601f0160208091040260200160405190810160405280929190818152602001828054610a7f90611cf2565b8015610acc5780601f10610aa157610100808354040283529160200191610acc565b820191906000526020600020905b815481529060010190602001808311610aaf57829003601f168201915b505050505081565b60008060008373ffffffffffffffffffffffffffffffffffffffff1673ffffffffffffffffffffffffffffffffffffffff168152602001908152602001600020549050919050565b610b2461161a565b610b2e600061170b565b565b600f5481565b610b3e611698565b600e60009054906101000a900460ff16610b8d576040517f08c379a0000000000000000000000000000000000000000000000000000000008152600401610b8490611fee565b60405180910390fd5b60008111610bd0576040517f08c379a0000000000000000000000000000000000000000000000000000000008152600401610bc790612080565b60405180910390fd5b600a5481610bdc610799565b610be69190611df2565b1115610c27576040517f08c379a0000000000000000000000000000000000000000000000000000000008152600401610c1e906120ec565b60405180910390fd5b6000600b5482610c379190611e86565b905080341015610c7c576040517f08c379a0000000000000000000000000000000000000000000000000000000008152600401610c7390612158565b60405180910390fd5b610c8633836117d1565b80600c60003373ffffffffffffffffffffffffffffffffffffffff1673ffffffffffffffffffffffffffffffffffffffff1681526020019081526020016000206000828254610cd59190611df2565b9250508190555080600d6000828254610cee9190611df2565b9250508190555060008134610d039190611d52565b90506000811115610d56573373ffffffffffffffffffffffffffffffffffffffff166108fc829081150290604051600060405180830381858888f19350505050158015610d54573d6000803e3d6000fd5b505b3373ffffffffffffffffffffffffffffffffffffffff167f8fafebcaf9d154343dad25669bfa277f4fbacd7ac6b0c4fed522580e040a0f338385604051610d9e929190612178565b60405180910390a25050610db0611701565b50565b600b5481565b6000600560009054906101000a900473ffffffffffffffffffffffffffffffffffffffff16905090565b606060048054610df290611cf2565b80601f0160208091040260200160405190810160405280929190818152602001828054610e1e90611cf2565b8015610e6b5780601f10610e4057610100808354040283529160200191610e6b565b820191906000526020600020905b815481529060010190602001808311610e4e57829003601f168201915b5050505050905090565b600c6020528060005260406000206000915090505481565b610e9561161a565b80600e60006101000a81548160ff0219169083151502179055507fbb98785c154816752a6735dfc074a1befe2e6ca67eb464f94c9b650ce952f81181604051610ede9190611ad7565b60405180910390a150565b600080610ef4611147565b90506000610f028286610f83565b905083811015610f47576040517f08c379a0000000000000000000000000000000000000000000000000000000008152600401610f3e90612213565b60405180910390fd5b610f54828686840361114f565b60019250505092915050565b600080610f6b611147565b9050610f788185856113a4565b600191505092915050565b6000600160008473ffffffffffffffffffffffffffffffffffffffff1673ffffffffffffffffffffffffffffffffffffffff16815260200190815260200160002060008373ffffffffffffffffffffffffffffffffffffffff1673ffffffffffffffffffffffffffffffffffffffff16815260200190815260200160002054905092915050565b61101261161a565b80600981905550600a54816110279190611e55565b600b8190555050565b6007805461103d90611cf2565b80601f016020809104026020016040519081016040528092919081815260200182805461106990611cf2565b80156110b65780601f1061108b576101008083540402835291602001916110b6565b820191906000526020600020905b81548152906001019060200180831161109957829003601f168201915b505050505081565b6110c661161a565b600073ffffffffffffffffffffffffffffffffffffffff168173ffffffffffffffffffffffffffffffffffffffff1603611135576040517f08c379a000000000000000000000000000000000000000000000000000000000815260040161112c906122a5565b60405180910390fd5b61113e8161170b565b50565b60105481565b600033905090565b600073ffffffffffffffffffffffffffffffffffffffff168373ffffffffffffffffffffffffffffffffffffffff16036111be576040517f08c379a00000000000000000000000000000000000000000000000000000000081526004016111b590612337565b60405180910390fd5b600073ffffffffffffffffffffffffffffffffffffffff168273ffffffffffffffffffffffffffffffffffffffff160361122d576040517f08c379a0000000000000000000000000000000000000000000000000000000008152600401611224906123c9565b60405180910390fd5b80600160008573ffffffffffffffffffffffffffffffffffffffff1673ffffffffffffffffffffffffffffffffffffffff16815260200190815260200160002060008473ffffffffffffffffffffffffffffffffffffffff1673ffffffffffffffffffffffffffffffffffffffff168152602001908152602001600020819055508173ffffffffffffffffffffffffffffffffffffffff168373ffffffffffffffffffffffffffffffffffffffff167f8c5be1e5ebec7d5bd14f71427d1e84f3dd0314c0f7b2291e5b200ac8c7c3b9258360405161130b9190611b01565b60405180910390a3505050565b60006113248484610f83565b90507fffffffffffffffffffffffffffffffffffffffffffffffffffffffffffffffff811461139e5781811015611390576040517f08c379a000000000000000000000000000000000000000000000000000000000815260040161138790612435565b60405180910390fd5b61139d848484840361114f565b5b50505050565b600073ffffffffffffffffffffffffffffffffffffffff168373ffffffffffffffffffffffffffffffffffffffff1603611413576040517f08c379a000000000000000000000000000000000000000000000000000000000815260040161140a906124c7565b60405180910390fd5b600073ffffffffffffffffffffffffffffffffffffffff168273ffffffffffffffffffffffffffffffffffffffff1603611482576040517f08c379a000000000000000000000000000000000000000000000000000000000815260040161147990612559565b60405180910390fd5b61148d838383611927565b60008060008573ffffffffffffffffffffffffffffffffffffffff1673ffffffffffffffffffffffffffffffffffffffff16815260200190815260200160002054905081811015611513576040517f08c379a000000000000000000000000000000000000000000000000000000000815260040161150a906125eb565b60405180910390fd5b8181036000808673ffffffffffffffffffffffffffffffffffffffff1673ffffffffffffffffffffffffffffffffffffffff16815260200190815260200160002081905550816000808573ffffffffffffffffffffffffffffffffffffffff1673ffffffffffffffffffffffffffffffffffffffff168152602001908152602001600020600082825401925050819055508273ffffffffffffffffffffffffffffffffffffffff168473ffffffffffffffffffffffffffffffffffffffff167fddf252ad1be2c89b69c2b068fc378daa952ba7f163c4a11628f55a4df523b3ef846040516116019190611b01565b60405180910390a361161484848461192c565b50505050565b611622611147565b73ffffffffffffffffffffffffffffffffffffffff16611640610db9565b73ffffffffffffffffffffffffffffffffffffffff1614611696576040517f08c379a000000000000000000000000000000000000000000000000000000000815260040161168d90612657565b60405180910390fd5b565b6002600654036116dd576040517f08c379a00000000000000000000000000000000000000000000000000000000081526004016116d4906126c3565b60405180910390fd5b6002600681905550565b60006001905090565b60006116fa610db9565b9050919050565b6001600681905550565b6000600560009054906101000a900473ffffffffffffffffffffffffffffffffffffffff16905081600560006101000a81548173ffffffffffffffffffffffffffffffffffffffff021916908373ffffffffffffffffffffffffffffffffffffffff1602179055508173ffffffffffffffffffffffffffffffffffffffff168173ffffffffffffffffffffffffffffffffffffffff167f8be0079c531659141344cd1fd0a4f28419497f9722a3daafe3b4186f6b6457e060405160405180910390a35050565b600073ffffffffffffffffffffffffffffffffffffffff168273ffffffffffffffffffffffffffffffffffffffff1603611840576040517f08c379a00000000000000000000000000000000000000000000000000000000081526004016118379061272f565b60405180910390fd5b61184c60008383611927565b806002600082825461185e9190611df2565b92505081905550806000808473ffffffffffffffffffffffffffffffffffffffff1673ffffffffffffffffffffffffffffffffffffffff168152602001908152602001600020600082825401925050819055508173ffffffffffffffffffffffffffffffffffffffff16600073ffffffffffffffffffffffffffffffffffffffff167fddf252ad1be2c89b69c2b068fc378daa952ba7f163c4a11628f55a4df523b3ef8360405161190f9190611b01565b60405180910390a36119236000838361192c565b5050565b505050565b505050565b600081519050919050565b600082825260208201905092915050565b60005b8381101561196b578082015181840152602081019050611950565b60008484015250505050565b6000601f19601f8301169050919050565b600061199382611931565b61199d818561193c565b93506119ad81856020860161194d565b6119b681611977565b840191505092915050565b600060208201905081810360008301526119db8184611988565b905092915050565b600080fd5b600073ffffffffffffffffffffffffffffffffffffffff82169050919050565b6000611a13826119e8565b9050919050565b611a2381611a08565b8114611a2e57600080fd5b50565b600081359050611a4081611a1a565b92915050565b6000819050919050565b611a5981611a46565b8114611a6457600080fd5b50565b600081359050611a7681611a50565b92915050565b60008060408385031215611a9357611a926119e3565b5b6000611aa185828601611a31565b9250506020611ab285828601611a67565b9150509250929050565b60008115159050919050565b611ad181611abc565b82525050565b6000602082019050611aec6000830184611ac8565b92915050565b611afb81611a46565b82525050565b6000602082019050611b166000830184611af2565b92915050565b600080600060608486031215611b3557611b346119e3565b5b6000611b4386828701611a31565b9350506020611b5486828701611a31565b9250506040611b6586828701611a67565b9150509250925092565b600060ff82169050919050565b611b8581611b6f565b82525050565b6000602082019050611ba06000830184611b7c565b92915050565b600060208284031215611bbc57611bbb6119e3565b5b6000611bca84828501611a31565b91505092915050565b600060208284031215611be957611be86119e3565b5b6000611bf784828501611a67565b91505092915050565b611c0981611a08565b82525050565b6000602082019050611c246000830184611c00565b92915050565b611c3381611abc565b8114611c3e57600080fd5b50565b600081359050611c5081611c2a565b92915050565b600060208284031215611c6c57611c6b6119e3565b5b6000611c7a84828501611c41565b91505092915050565b60008060408385031215611c9a57611c996119e3565b5b6000611ca885828601611a31565b9250506020611cb985828601611a31565b9150509250929050565b7f4e487b7100000000000000000000000000000000000000000000000000000000600052602260045260246000fd5b60006002820490506001821680611d0a57607f821691505b602082108103611d1d57611d1c611cc3565b5b50919050565b7f4e487b7100000000000000000000000000000000000000000000000000000000600052601160045260246000fd5b6000611d5d82611a46565b9150611d6883611a46565b9250828203905081811115611d8057611d7f611d23565b5b92915050565b7f4e6f20726576656e756520746f20646973747269627574650000000000000000600082015250565b6000611dbc60188361193c565b9150611dc782611d86565b602082019050919050565b60006020820190508181036000830152611deb81611daf565b9050919050565b6000611dfd82611a46565b9150611e0883611a46565b9250828201905080821115611e2057611e1f611d23565b5b92915050565b7f4e487b7100000000000000000000000000000000000000000000000000000000600052601260045260246000fd5b6000611e6082611a46565b9150611e6b83611a46565b925082611e7b57611e7a611e26565b5b828204905092915050565b6000611e9182611a46565b9150611e9c83611a46565b9250828202611eaa81611a46565b91508282048414831517611ec157611ec0611d23565b5b5092915050565b6000611ed382611a46565b91507fffffffffffffffffffffffffffffffffffffffffffffffffffffffffffffffff8203611f0557611f04611d23565b5b600182019050919050565b7f4d757374206465706f73697420736f6d6520726576656e756500000000000000600082015250565b6000611f4660198361193c565b9150611f5182611f10565b602082019050919050565b60006020820190508181036000830152611f7581611f39565b9050919050565b7f50726f7065727479206973206e6f742061637469766520666f7220696e76657360008201527f746d656e74000000000000000000000000000000000000000000000000000000602082015250565b6000611fd860258361193c565b9150611fe382611f7c565b604082019050919050565b6000602082019050818103600083015261200781611fcb565b9050919050565b7f546f6b656e20616d6f756e74206d75737420626520677265617465722074686160008201527f6e20300000000000000000000000000000000000000000000000000000000000602082015250565b600061206a60238361193c565b91506120758261200e565b604082019050919050565b600060208201905081810360008301526120998161205d565b9050919050565b7f4578636565647320617661696c61626c6520746f6b656e730000000000000000600082015250565b60006120d660188361193c565b91506120e1826120a0565b602082019050919050565b60006020820190508181036000830152612105816120c9565b9050919050565b7f496e73756666696369656e742066756e64732073656e74000000000000000000600082015250565b600061214260178361193c565b915061214d8261210c565b602082019050919050565b6000602082019050818103600083015261217181612135565b9050919050565b600060408201905061218d6000830185611af2565b61219a6020830184611af2565b9392505050565b7f45524332303a2064656372656173656420616c6c6f77616e63652062656c6f7760008201527f207a65726f000000000000000000000000000000000000000000000000000000602082015250565b60006121fd60258361193c565b9150612208826121a1565b604082019050919050565b6000602082019050818103600083015261222c816121f0565b9050919050565b7f4f776e61626c653a206e6577206f776e657220697320746865207a65726f206160008201527f6464726573730000000000000000000000000000000000000000000000000000602082015250565b600061228f60268361193c565b915061229a82612233565b604082019050919050565b600060208201905081810360008301526122be81612282565b9050919050565b7f45524332303a20617070726f76652066726f6d20746865207a65726f2061646460008201527f7265737300000000000000000000000000000000000000000000000000000000602082015250565b600061232160248361193c565b915061232c826122c5565b604082019050919050565b6000602082019050818103600083015261235081612314565b9050919050565b7f45524332303a20617070726f766520746f20746865207a65726f20616464726560008201527f7373000000000000000000000000000000000000000000000000000000000000602082015250565b60006123b360228361193c565b91506123be82612357565b604082019050919050565b600060208201905081810360008301526123e2816123a6565b9050919050565b7f45524332303a20696e73756666696369656e7420616c6c6f77616e6365000000600082015250565b600061241f601d8361193c565b915061242a826123e9565b602082019050919050565b6000602082019050818103600083015261244e81612412565b9050919050565b7f45524332303a207472616e736665722066726f6d20746865207a65726f20616460008201527f6472657373000000000000000000000000000000000000000000000000000000602082015250565b60006124b160258361193c565b91506124bc82612455565b604082019050919050565b600060208201905081810360008301526124e0816124a4565b9050919050565b7f45524332303a207472616e7366657220746f20746865207a65726f206164647260008201527f6573730000000000000000000000000000000000000000000000000000000000602082015250565b600061254360238361193c565b915061254e826124e7565b604082019050919050565b6000602082019050818103600083015261257281612536565b9050919050565b7f45524332303a207472616e7366657220616d6f756e742065786365656473206260008201527f616c616e63650000000000000000000000000000000000000000000000000000602082015250565b60006125d560268361193c565b91506125e082612579565b604082019050919050565b60006020820190508181036000830152612604816125c8565b9050919050565b7f4f776e61626c653a2063616c6c6572206973206e6f7420746865206f776e6572600082015250565b600061264160208361193c565b915061264c8261260b565b602082019050919050565b6000602082019050818103600083015261267081612634565b9050919050565b7f5265656e7472616e637947756172643a207265656e7472616e742063616c6c00600082015250565b60006126ad601f8361193c565b91506126b882612677565b602082019050919050565b600060208201905081810360008301526126dc816126a0565b9050919050565b7f45524332303a206d696e7420746f20746865207a65726f206164647265737300600082015250565b6000612719601f8361193c565b9150612724826126e3565b602082019050919050565b600060208201905081810360008301526127488161270c565b905091905056fea26469706673582212207261f3e7fba645334defcbc75d57c965975475345d729f1e7edbba4eeac7109764736f6c63430008120033a264697066735822122014ab22af6c5aa5a52c9b78b3ced157f23365c17c9718d604819fe2d732cd76af64736f6c63430008120033",
  "linkReferences": {},
  "deployedLinkReferences": {}
}